:020000040800F2
:1000000070060020CD010008310600088F050008A9
:100010002D060008F70200081D0A00080000000075
:10002000000000000000000000000000250700089C
:10003000FB02000800000000E10600089508000827
:10004000E7010008E7010008E7010008E7010008F0
:10005000E7010008E7010008FD020008E7010008C9
:10006000E7010008E7010008E7010008E7010008D0
:10007000E7010008E7010008E7010008E7010008C0
:10008000E7010008E7010008E7010008E7010008B0
:10009000E7010008E7010008E7010008E7010008A0
:1000A000E7010008E7010008E7010008E701000890
:1000B000E7010008E7010008E7010008E701000880
:1000C000E7010008E7010008E7010008E701000870
:1000D000E7010008E7010008E7010008E701000860
:1000E000E7010008E7010008E7010008E701000850
:1000F000E7010008E7010008E7010008E701000840
:10010000E7010008E7010008E7010008E70100082F
:10011000E7010008E7010008F9080008E701000806
:10012000E7010008E7010008E7010008E70100080F
:1001300000F002F800F03AF80AA090E8000C8244BF
:100140008344AAF10107DA4501D100F02FF8AFF29C
:10015000090EBAE80F0013F0010F18BFFB1A43F0A5
:100160000103184790090000B0090000103A24BFAD
:1001700078C878C1FAD8520724BF30C830C144BF0C
:1001800004680C607047000000230024002500264E
:10019000103A28BF78C1FBD8520728BF30C148BFEA
:1001A0000B6070471FB51FBD10B510BD00F031F8D2
:1001B0001146FFF7F7FF00F081FC00F04FF803B4A1
:1001C000FFF7F2FF03BC00F053F800000948804736
:1001D00009480047FEE7FEE7FEE7FEE7FEE7FEE729
:1001E000FEE7FEE7FEE7FEE704480549054A064B41
:1001F00070470000990800083101000870000020D5
:1002000070060020700200207002002070477047C6
:100210007047754600F028F8AE460500694653461B
:1002200020F00700854618B020B5FFF7DDFFBDE8D8
:1002300020404FF000064FF000074FF000084FF04D
:10024000000B21F00701AC46ACE8C009ACE8C009DE
:10025000ACE8C009ACE8C0098D4670470446AFF36E
:1002600000802046FFF7ABFF0048704710000020D9
:1002700001491820ABBEFEE726000200704710B50A
:1002800000F024F800F002F810BD00000EB50121C6
:10029000102000F027FA40F2E730ADF804004720C4
:1002A000ADF800006946084800F066FB01210648E9
:1002B00000F036FB01221146034800F054FB0021F8
:1002C000014800F033FB0EBD0010004008B54FF4AC
:1002D000E06000F0FBF936208DF8000000208DF87A
:1002E000010003208DF8020001208DF8030068460C
:1002F00000F0B4F908BD00BFFEE7704710B501205B
:1003000000F038F840B31548006888B101281ED1C4
:100310000020134908600121124800F007FB0F4834
:10032000006808B9012000E000200C4908600FE0D7
:1003300000210C4800F0FAFA0848006808B90120CA
:1003400000E000200549086000F06AFB00E000BF03
:1003500000BF012000F008F810BD00000C000020D4
:1003600008000020001000400149086070470000AC
:1003700014040140014600200022074B1B6803EAD9
:100380000102054B14331B680B4013B10AB1012065
:1003900000E00020704700000004014000212349D4
:1003A0008279002A3AD00A46126803689A430B46BB
:1003B0001A600A1D126803689A430B1D1A600279BD
:1003C00011440A6803681A430A60184A083212681E
:1003D00003689A43154B08331A601A1D12680368A4
:1003E0009A43124B0C331A604279102A0ED11A1F0D
:1003F000126803681A430D4B08331A601A1D1268FD
:1004000003681A43094B0C331A600DE0074942791F
:1004100011440A6803681A430A6005E0027911442E
:100420000A6803689A430A607047000000040140AC
:1004300030B500228B071C0F0F2303FA04F20B4B7D
:100440008C1053F824309343084C8D1044F8253019
:1004500023468C1053F824308C07240F00FA04F440
:100460002343024C8D1044F8253030BD0800014074
:100470002DE9F0410246002500260020002300243B
:10048000002791F803C00CF00F0591F803C00CF0A1
:10049000100CBCF1000F03D091F802C04CEA050526
:1004A00091F800C0BCF1000F31D0146800202BE09F
:1004B0004FF0010C0CFA00F3B1F800C00CEA03068F
:1004C0009E4220D183004FF00F0C0CFA03F7BC437F
:1004D00005FA03FC4CEA040491F803C0BCF1280FB0
:1004E00006D14FF0010C0CFA00FCC2F814C00AE06F
:1004F00091F803C0BCF1480F05D14FF0010C0CFA84
:1005000000FCC2F810C0401C0828D1D31460B1F818
:1005100000C0BCF1FF0F34DD546800202EE000F174
:10052000080C4FF0010808FA0CF3B1F800C00CEA0F
:1005300003069E4221D183004FF00F0C0CFA03F703
:10054000BC4305FA03FC4CEA040491F803C0BCF177
:10055000280F05D100F1080C08FA0CF8C2F8148035
:1005600091F803C0BCF1480F07D100F1080C4FF01F
:10057000010808FA0CF8C2F81080401C0828CED3F5
:100580005460BDE8F081416170470161704700BF70
:10059000FEE700000EB500F04CF80121042000F049
:1005A000B1F80120ADF8080004208DF80B0002A975
:1005B0000C48FFF75DFF0121084600F0A3F8002179
:1005C0000846FFF735FF0120009000208DF8040059
:1005D00010208DF8050001208DF806006846FFF711
:1005E000DDFE0EBD0008014008B50121102000F01D
:1005F00089F80420ADF8000010208DF803000120D8
:100600008DF8020069460848FFF732FF0820ADF870
:10061000000010208DF8030001208DF802006946CB
:100620000148FFF725FF08BD0010014000BFFEE7AD
:10063000704708B54FF4C06000F048F806208DF808
:10064000000001208DF8010000208DF8020001203B
:100650008DF80300684600F001F808BD70B5002170
:1006600000230F22C47804B3154C246804F4E0641A
:10067000C4F5E064210AC1F10403CA40447804FAD5
:1006800003F184781440214309010E4C0678A155EA
:10069000047804F01F050124AC4005786D11AD000D
:1006A00005F1E025C5F8004109E0047804F01F05D4
:1006B0000124AC40044D0678761145F8264070BD03
:1006C0000CED00E000E400E080E100E002490143BD
:1006D000024A1160704700000000FA050CED00E0CE
:1006E0007047000029B1064AD2690243044BDA611F
:1006F00004E0034AD2698243014BDA61704700008B
:100700000010024029B1064A92690243044B9A61E3
:1007100004E0034A92698243014B9A6170470000EA
:1007200000100240704710B500F002F810BD000044
:100730000CB50020019000903348006840F48030F0
:100740003149086000BF3048006800F40030009074
:100750000198401C0190009818B90198B0F5A06F5D
:10076000F1D12948006800F4003010B10120009058
:1007700001E0002000900098012843D12348006840
:1007800040F01000214908600846006820F003008E
:1007900008600846006840F0020008601A48406897
:1007A000194948600846406848600846406840F477
:1007B000806048600846406820F47C104860084625
:1007C000406840F4E81048600846006840F08070D7
:1007D000086000BF0C48006800F000700028F9D0E5
:1007E0000948406820F0030007494860084640680F
:1007F00040F00200486000BF0348406800F00C0071
:100800000828F9D10CBD0000001002400020024071
:10081000F0B504461C4AB2F1807F00D31DE022F0FF
:100820007F40401E4FF0E023586158170F230028E7
:1008300007DA1D072F0E154D00F00F06361FAF55B6
:1008400003E01D072E0E124D2E5400BF00204FF066
:10085000E02398610720186100BF002108E000BF75
:100860004FF0E020006900F480300028F8D0491CE7
:10087000A142F4D34FF0E020006920F001004FF0D6
:10088000E0221061F0BD00004019010018ED00E009
:1008900000E400E07047000010B51348006840F025
:1008A00001001149086008464068104908400E4997
:1008B0004860084600680E4908400B490860084631
:1008C000006820F4802008600846406820F4FE009C
:1008D00048604FF41F008860FFF725FF4FF000606D
:1008E0000449086010BD0000001002400000FFF83D
:1008F000FFFFF6FE08ED00E010B50121064800F00C
:1009000021F840B105480068401C044908600121F5
:10091000014800F008F810BD001000400800002059
:10092000CA4302827047CA430282704721B10288DB
:1009300042F00102028004E002884FF6FE731A4082
:100940000280704730B50246002000230024158A3B
:1009500005EA0103958905EA010413B10CB10120F0
:1009600000E0002030BD1AB183890B43838102E08F
:1009700083898B4383817047002202881D4B9842F4
:100980000ED01D4B98420BD0B0F1804F08D01B4BBE
:10099000984205D01A4B984202D01A4B984204D183
:1009A0004FF68F731A404B881A43174B984207D063
:1009B000164B984204D04FF6FF431A40CB881A4397
:1009C00002808B8883850B8803850A4B98420BD065
:1009D000094B984208D00E4B984205D00D4B9842D7
:1009E00002D00D4B984201D10B7A038601238382FA
:1009F00070470000002C014000340140000400401A
:100A000000080040000C00400010004000140040AE
:100A100000400140004401400048014000BFFEE7A3
:100A200010B522480068B0F5FA6F14D3204800686A
:100A300008B9012000E000201D4908600846006850
:100A400020B908211B48FFF7A0FD2EE00821194816
:100A5000FFF799FD29E01648006810B1012822D15E
:100A600010E01548006841F28831884203D30846F7
:100A70001149086005E01048006800F5FA600E4969
:100A8000086011E00C480068B0F57A7F04D841F2A4
:100A900088300949086005E007480068A0F5FA6059
:100AA0000549086000E000BF00BF10BD080000203D
:100AB000000000200010014004000020FFF794FD1A
:100AC000FFF768FDFFF7DBFB0FE004210748FFF7A6
:100AD0005CFD07480068FFF79BFE04210348FFF711
:100AE00052FD03480068FFF793FEEEE70010014057
:100AF00004000020140B000800000020100000007B
:100B00006C010008240B00081000002060060000A3
:100B100088010008010000008813000000000000A8
:040B200001000000D0
:0400000508000131BD
:00000001FF
